{
    "_format": "hh-sol-artifact-1",
    "contractName": "CertificateRegistry",
    "sourceName": "contracts/Certificate.sol",
    "abi": [
        {
            "inputs": [],
            "stateMutability": "nonpayable",
            "type": "constructor"
        },
        {
            "anonymous": false,
            "inputs": [
                {
                    "indexed": true,
                    "internalType": "address",
                    "name": "admin",
                    "type": "address"
                }
            ],
            "name": "AdminAdded",
            "type": "event"
        },
        {
            "anonymous": false,
            "inputs": [
                {
                    "indexed": true,
                    "internalType": "address",
                    "name": "admin",
                    "type": "address"
                }
            ],
            "name": "AdminRemoved",
            "type": "event"
        },
        {
            "anonymous": false,
            "inputs": [
                {
                    "indexed": true,
                    "internalType": "bytes32",
                    "name": "hash",
                    "type": "bytes32"
                },
                {
                    "indexed": true,
                    "internalType": "address",
                    "name": "issuer",
                    "type": "address"
                },
                {
                    "indexed": false,
                    "internalType": "uint256",
                    "name": "issueDate",
                    "type": "uint256"
                }
            ],
            "name": "CertificateIssued",
            "type": "event"
        },
        {
            "anonymous": false,
            "inputs": [
                {
                    "indexed": true,
                    "internalType": "bytes32",
                    "name": "hash",
                    "type": "bytes32"
                },
                {
                    "indexed": true,
                    "internalType": "address",
                    "name": "issuer",
                    "type": "address"
                }
            ],
            "name": "CertificateRevoked",
            "type": "event"
        },
        {
            "inputs": [
                {
                    "internalType": "address",
                    "name": "_admin",
                    "type": "address"
                }
            ],
            "name": "addAdmin",
            "outputs": [],
            "stateMutability": "nonpayable",
            "type": "function"
        },
        {
            "inputs": [
                {
                    "internalType": "address",
                    "name": "",
                    "type": "address"
                }
            ],
            "name": "admins",
            "outputs": [
                {
                    "internalType": "bool",
                    "name": "",
                    "type": "bool"
                }
            ],
            "stateMutability": "view",
            "type": "function"
        },
        {
            "inputs": [
                {
                    "internalType": "bytes32",
                    "name": "",
                    "type": "bytes32"
                }
            ],
            "name": "certificates",
            "outputs": [
                {
                    "internalType": "bytes32",
                    "name": "hash",
                    "type": "bytes32"
                },
                {
                    "internalType": "address",
                    "name": "issuer",
                    "type": "address"
                },
                {
                    "internalType": "uint256",
                    "name": "issueDate",
                    "type": "uint256"
                },
                {
                    "internalType": "bool",
                    "name": "revoked",
                    "type": "bool"
                }
            ],
            "stateMutability": "view",
            "type": "function"
        },
        {
            "inputs": [
                {
                    "internalType": "bytes32",
                    "name": "hash",
                    "type": "bytes32"
                }
            ],
            "name": "getCertificateDetails",
            "outputs": [
                {
                    "internalType": "address",
                    "name": "",
                    "type": "address"
                },
                {
                    "internalType": "uint256",
                    "name": "",
                    "type": "uint256"
                },
                {
                    "internalType": "bool",
                    "name": "",
                    "type": "bool"
                }
            ],
            "stateMutability": "view",
            "type": "function"
        },
        {
            "inputs": [
                {
                    "internalType": "bytes32",
                    "name": "hash",
                    "type": "bytes32"
                }
            ],
            "name": "issueCertificate",
            "outputs": [],
            "stateMutability": "nonpayable",
            "type": "function"
        },
        {
            "inputs": [],
            "name": "owner",
            "outputs": [
                {
                    "internalType": "address",
                    "name": "",
                    "type": "address"
                }
            ],
            "stateMutability": "view",
            "type": "function"
        },
        {
            "inputs": [
                {
                    "internalType": "address",
                    "name": "_admin",
                    "type": "address"
                }
            ],
            "name": "removeAdmin",
            "outputs": [],
            "stateMutability": "nonpayable",
            "type": "function"
        },
        {
            "inputs": [
                {
                    "internalType": "bytes32",
                    "name": "hash",
                    "type": "bytes32"
                }
            ],
            "name": "revokeCertificate",
            "outputs": [],
            "stateMutability": "nonpayable",
            "type": "function"
        },
        {
            "inputs": [
                {
                    "internalType": "bytes32",
                    "name": "hash",
                    "type": "bytes32"
                }
            ],
            "name": "verifyCertificate",
            "outputs": [
                {
                    "internalType": "bool",
                    "name": "",
                    "type": "bool"
                }
            ],
            "stateMutability": "view",
            "type": "function"
        }
    ],
    "bytecode": "0x6080604052348015600f57600080fd5b50336000806101000a81548173ffffffffffffffffffffffffffffffffffffffff021916908373ffffffffffffffffffffffffffffffffffffffff1602179055506001600260003373ffffffffffffffffffffffffffffffffffffffff1673ffffffffffffffffffffffffffffffffffffffff16815260200190815260200160002060006101000a81548160ff021916908315150217905550610f4c806100b76000396000f3fe608060405234801561001057600080fd5b50600436106100935760003560e01c8063850c176811610066578063850c1768146101335780638da5cb5b14610163578063a1f8182414610181578063ac15f0ac1461019d578063c6cbc52a146101cf57610093565b80631785f53c14610098578063429b62e5146100b457806370480275146100e4578063742f068814610100575b600080fd5b6100b260048036038101906100ad9190610b14565b6101eb565b005b6100ce60048036038101906100c99190610b14565b610317565b6040516100db9190610b5c565b60405180910390f35b6100fe60048036038101906100f99190610b14565b610337565b005b61011a60048036038101906101159190610bad565b610463565b60405161012a9493929190610c11565b60405180910390f35b61014d60048036038101906101489190610bad565b6104c0565b60405161015a9190610b5c565b60405180910390f35b61016b61055c565b6040516101789190610c56565b60405180910390f35b61019b60048036038101906101969190610bad565b610580565b005b6101b760048036038101906101b29190610bad565b61082b565b6040516101c693929190610c71565b60405180910390f35b6101e960048036038101906101e49190610bad565b610998565b005b60008054906101000a900473ffffffffffffffffffffffffffffffffffffffff1673ffffffffffffffffffffffffffffffffffffffff163373ffffffffffffffffffffffffffffffffffffffff1614610279576040517f08c379a000000000000000000000000000000000000000000000000000000000815260040161027090610d05565b60405180910390fd5b6000600260008373ffffffffffffffffffffffffffffffffffffffff1673ffffffffffffffffffffffffffffffffffffffff16815260200190815260200160002060006101000a81548160ff0219169083151502179055508073ffffffffffffffffffffffffffffffffffffffff167fa3b62bc36326052d97ea62d63c3d60308ed4c3ea8ac079dd8499f1e9c4f80c0f60405160405180910390a250565b60026020528060005260406000206000915054906101000a900460ff1681565b60008054906101000a900473ffffffffffffffffffffffffffffffffffffffff1673ffffffffffffffffffffffffffffffffffffffff163373ffffffffffffffffffffffffffffffffffffffff16146103c5576040517f08c379a00000000000000000000000000000000000000000000000000000000081526004016103bc90610d05565b60405180910390fd5b6001600260008373ffffffffffffffffffffffffffffffffffffffff1673ffffffffffffffffffffffffffffffffffffffff16815260200190815260200160002060006101000a81548160ff0219169083151502179055508073ffffffffffffffffffffffffffffffffffffffff167f44d6d25963f097ad14f29f06854a01f575648a1ef82f30e562ccd3889717e33960405160405180910390a250565b60016020528060005260406000206000915090508060000154908060010160009054906101000a900473ffffffffffffffffffffffffffffffffffffffff16908060020154908060030160009054906101000a900460ff16905084565b60008073ffffffffffffffffffffffffffffffffffffffff166001600084815260200190815260200160002060010160009054906101000a900473ffffffffffffffffffffffffffffffffffffffff1673ffffffffffffffffffffffffffffffffffffffff161415801561055557506001600083815260200190815260200160002060030160009054906101000a900460ff16155b9050919050565b60008054906101000a900473ffffffffffffffffffffffffffffffffffffffff1681565b60011515600260003373ffffffffffffffffffffffffffffffffffffffff1673ffffffffffffffffffffffffffffffffffffffff16815260200190815260200160002060009054906101000a900460ff161515148061062a575060008054906101000a900473ffffffffffffffffffffffffffffffffffffffff1673ffffffffffffffffffffffffffffffffffffffff163373ffffffffffffffffffffffffffffffffffffffff16145b610669576040517f08c379a000000000000000000000000000000000000000000000000000000000815260040161066090610d71565b60405180910390fd5b600073ffffffffffffffffffffffffffffffffffffffff166001600083815260200190815260200160002060010160009054906101000a900473ffffffffffffffffffffffffffffffffffffffff1673ffffffffffffffffffffffffffffffffffffffff161461070e576040517f08c379a000000000000000000000000000000000000000000000000000000000815260040161070590610ddd565b60405180910390fd5b60405180608001604052808281526020013373ffffffffffffffffffffffffffffffffffffffff16815260200142815260200160001515815250600160008381526020019081526020016000206000820151816000015560208201518160010160006101000a81548173ffffffffffffffffffffffffffffffffffffffff021916908373ffffffffffffffffffffffffffffffffffffffff1602179055506040820151816002015560608201518160030160006101000a81548160ff0219169083151502179055509050503373ffffffffffffffffffffffffffffffffffffffff16817f36b518fed88ed88d56e6197f8ca72f326d86ff0612dc364838d93c4d5daab5a9426040516108209190610dfd565b60405180910390a350565b60008060008073ffffffffffffffffffffffffffffffffffffffff166001600086815260200190815260200160002060010160009054906101000a900473ffffffffffffffffffffffffffffffffffffffff1673ffffffffffffffffffffffffffffffffffffffff16036108d4576040517f08c379a00000000000000000000000000000000000000000000000000000000081526004016108cb90610e64565b60405180910390fd5b600060016000868152602001908152602001600020604051806080016040529081600082015481526020016001820160009054906101000a900473ffffffffffffffffffffffffffffffffffffffff1673ffffffffffffffffffffffffffffffffffffffff1673ffffffffffffffffffffffffffffffffffffffff168152602001600282015481526020016003820160009054906101000a900460ff1615151515815250509050806020015181604001518260600151935093509350509193909250565b3373ffffffffffffffffffffffffffffffffffffffff166001600083815260200190815260200160002060010160009054906101000a900473ffffffffffffffffffffffffffffffffffffffff1673ffffffffffffffffffffffffffffffffffffffff1614610a3c576040517f08c379a0000000000000000000000000000000000000000000000000000000008152600401610a3390610ef6565b60405180910390fd5b600180600083815260200190815260200160002060030160006101000a81548160ff0219169083151502179055503373ffffffffffffffffffffffffffffffffffffffff16817f1dbd7f0554a6447214abb6405781d5ee119037a7024fcb7fffd542c3c12cd77660405160405180910390a350565b600080fd5b600073ffffffffffffffffffffffffffffffffffffffff82169050919050565b6000610ae182610ab6565b9050919050565b610af181610ad6565b8114610afc57600080fd5b50565b600081359050610b0e81610ae8565b92915050565b600060208284031215610b2a57610b29610ab1565b5b6000610b3884828501610aff565b91505092915050565b60008115159050919050565b610b5681610b41565b82525050565b6000602082019050610b716000830184610b4d565b92915050565b6000819050919050565b610b8a81610b77565b8114610b9557600080fd5b50565b600081359050610ba781610b81565b92915050565b600060208284031215610bc357610bc2610ab1565b5b6000610bd184828501610b98565b91505092915050565b610be381610b77565b82525050565b610bf281610ad6565b82525050565b6000819050919050565b610c0b81610bf8565b82525050565b6000608082019050610c266000830187610bda565b610c336020830186610be9565b610c406040830185610c02565b610c4d6060830184610b4d565b95945050505050565b6000602082019050610c6b6000830184610be9565b92915050565b6000606082019050610c866000830186610be9565b610c936020830185610c02565b610ca06040830184610b4d565b949350505050565b600082825260208201905092915050565b7f4e6f742074686520636f6e7472616374206f776e657200000000000000000000600082015250565b6000610cef601683610ca8565b9150610cfa82610cb9565b602082019050919050565b60006020820190508181036000830152610d1e81610ce2565b9050919050565b7f4e6f7420616e2061646d696e206f72206f776e65720000000000000000000000600082015250565b6000610d5b601583610ca8565b9150610d6682610d25565b602082019050919050565b60006020820190508181036000830152610d8a81610d4e565b9050919050565b7f436572746966696361746520616c726561647920657869737473000000000000600082015250565b6000610dc7601a83610ca8565b9150610dd282610d91565b602082019050919050565b60006020820190508181036000830152610df681610dba565b9050919050565b6000602082019050610e126000830184610c02565b92915050565b7f436572746966696361746520646f6573206e6f74206578697374000000000000600082015250565b6000610e4e601a83610ca8565b9150610e5982610e18565b602082019050919050565b60006020820190508181036000830152610e7d81610e41565b9050919050565b7f4f6e6c7920746865206973737565722063616e207265766f6b6520746869732060008201527f6365727469666963617465000000000000000000000000000000000000000000602082015250565b6000610ee0602b83610ca8565b9150610eeb82610e84565b604082019050919050565b60006020820190508181036000830152610f0f81610ed3565b905091905056fea2646970667358221220e142248ebad5a5140f4800406c625b8636dc2ef428d20baf4d6cafc13dfe755c64736f6c634300081b0033",
    "linkReferences": {},
    "deployedLinkReferences": {}
}